:020000040800F2
:1000000038060020490100083B1C0008951700082D
:10001000391C00087D030008D32000080000000000
:10002000000000000000000000000000E11C0008CB
:100030007F030008000000003D1C0008E31C0008CE
:100040006301000863010008630100086301000800
:1000500063010008630100086301000863010008F0
:1000600063010008630100086301000863010008E0
:1000700063010008630100086301000863010008D0
:1000800063010008630100086301000863010008C0
:1000900063010008630100086301000863010008B0
:1000A000391D00085D1D0008511D0008451D000890
:1000B000691D0008751D0008811D00086301000806
:1000C0006301000863010008630100086301000880
:1000D0006301000863010008630100086301000870
:1000E0006301000863010008630100086301000860
:1000F0006301000863010008630100086301000850
:1001000063010008630100088D1D000863010008F9
:10011000630100086301000863010008630100082F
:10012000630100086301000863010008630100081F
:10013000DFF810D000F010F9004800471521000842
:10014000AFF3008038060020064880470648004785
:10015000FEE7FEE7FEE7FEE7FEE7FEE7FEE7FEE777
:10016000FEE7FEE7351D000831010008D2B201E0CC
:1001700000F8012B491EFBD270470022F6E710B5AC
:1001800013460A4604461946FFF7F0FF204610BD05
:10019000F0B480EA0102D40F4200B2EB410F02D268
:1001A0000246084611464A0042D0C30DDDB2C1F3F3
:1001B000C752AD1A202D35DAC1F3160141F4000201
:1001C00004B15242C5F1200602FA06F12A41104458
:1001D000B3EBD05F23D0C4B1012DA0EBC35009DC39
:1001E000F0BC4FF0004202EAC352DBB200F500005F
:1001F00000F083B8400000F1807000EBC350A0F124
:10020000807040EAD170490009E0490841EAC071B4
:10021000A0EBC35000F50000400800EBC350F0BC59
:1002200000F062B86142012202EB4101001BF6E7D7
:10023000F0BC704781F00041AAE780F00040A7E7DA
:1002400080EA010210B502F00043400022D04A00CB
:100250001FD0010E01EB1261C0F35600C2F356022B
:1002600040F4000042F40002A0FB022000047F39A9
:10027000140400D0401C50EA124001D44000491E32
:10028000C2B20C0604EBD010401C4008802A02D0F9
:1002900003E0002010BD20F00100002900DA00205A
:1002A000184310BDC10F80EAE0700844CA079623C6
:1002B000002100F022B800F0004220F00040C10D03
:1002C000C0F3160040F400007F2901DA00207047D7
:1002D000962903DCC1F19601C84001E096398840B7
:1002E000002AF4D0404270470029A8BF7047401C44
:1002F000490008BF20F00100704710B4B0FA80FC3C
:1003000000FA0CF050EA010404BF10BC704749B178
:10031000CCF1200421FA04F411FA0CF118BF0121E8
:1003200021430843A3EB0C01CB1D4FEA00614FEAC8
:10033000102042BF002010BC704700EBC350104497
:100340000029A4BF10BC7047401C490008BF20F022
:10035000010010BC70470000064C074D06E0E06845
:1003600040F0010394E8070098471034AC42F6D3FC
:10037000FFF7E2FE8C220008AC220008FEE770477F
:100380007047000070B5044600F010F90546601C87
:1003900002D004480078044400F008F9401BA04251
:1003A000FAD370BD780000202DE9F84FDFF8C8912E
:1003B000002409F1040A0AF1040B23460F270BF16C
:1003C000040ED1E00125A54006EA0502AA4276D135
:1003D000DFF8A8C14E68A6EB0C0866452BD00DDCF3
:1003E000032E34D005DC36B3012E19D0022E2FD1C6
:1003F0001BE0112E16D0122E2AD119E0B8F5881F55
:1004000019D006DCB8F5803F15D0B8F5801F1FD194
:1004100011E0B8F5001F0ED0B8F5041F18D10AE09E
:10042000CB6815E0CB681B1D12E0CB6808330FE0EA
:10043000CB680C330CE08B682BB1012B4FF0080319
:1004400003D0456104E0042302E0056100E00023DD
:10045000FF2A01D8064601E000F104064FEA8405B0
:1004600001D9A5F12005D6F8008007FA05FC28EA95
:100470000C0803FA05F548EA0508C6F800804D683F
:10048000ED0070D53E4DAE6946F00106AE61AD6936
:1004900024F0030605F0010500953A4D06EB050C26
:1004A000DCF80850A607360F07FA06F825EA080513
:1004B000DFF8D480404503D14FF0000825E052E03A
:1004C000DFF8C880404502D14FF001081DE0DFF899
:1004D000C080404502D14FF0020816E0DFF8B4803A
:1004E000404502D14FF003080FE0DFF8AC804045F3
:1004F00002D14FF0040808E0DFF8A080404502D1A7
:100500004FF0050801E04FF0060808FA06F848EA3F
:100510000508CCF808804D68D9F80060ED034D4619
:1005200001D5164300E096432E604D68DAF800606E
:10053000AD03554601D5164300E096432E604D6845
:10054000DBF80060ED025D4601D5164300E09643FE
:100550002E604D68DEF80060AD02754601D5164389
:1005600000E096432E60641C0A681646E2407FF461
:1005700029AFBDE8F88F0000000401400000111011
:10058000001002400000014000080140000C014042
:10059000001001400014014000180140001C0140FF
:1005A0000AB1016170470904FBE700000148806857
:1005B00070470000780000200248816802781144EA
:1005C0008160704778000020074810B5016841F04D
:1005D00010010160032000F075F8002000F006F81B
:1005E00000F024F8002010BD0020024070B50D4D31
:1005F00004464FF47A712878B1FBF0F00A49096893
:10060000B1FBF0F000F0CCFA48B9102C07D2002270
:100610002146501E00F036F800206C6070BD0120AD
:1006200070BD000078000020840000200C4808B550
:10063000816941F001018161816901F0010100914D
:10064000C16941F08051C161C06900F080500090E3
:100650000448416821F0E06141F00071416008BD4B
:100660000010024000000140002809DB00F01F02DA
:10067000012191404009800000F1E020C0F8001104
:1006800070470000F0B40E4B1B680C46C3F3022306
:10069000C3F10705042D00D90425191D072901D22E
:1006A000002300E0DB1E012606FA05F1491E214069
:1006B00099409E40761E16403143F0BC01F00ABDC1
:1006C0000CED00E0064900F0070208684FF6FF0352
:1006D000184040EA0220034A1043086070470000B7
:1006E0000CED00E00000FA052DE9F0470F4605008B
:1006F00061D0434E306800F00700B84209D230683C
:1007000020F0070038433060306800F00700B8423E
:1007100051D128683B4C810712D5400703D560684A
:1007200040F4E06060602878000703D5606840F41A
:10073000605060606068A96820F0F0000843606065
:100740002878C00728D06868012810D021680228BE
:1007500010D0890700292EDA616821F003010143D6
:100760006160FFF723FF804641F288390DE0216880
:100770008903EFE78901EDE7FFF718FFA0EB080118
:10078000494502D90320BDE8F0876068696800F038
:100790000C00B0EB810FEFD1306800F00700B842D9
:1007A0000BD9306820F0070038433060306800F023
:1007B0000700B84201D00120E5E72878400705D5B9
:1007C0006068E96820F4E06008436060287800070A
:1007D00006D56068296920F4605040EAC100606075
:1007E00000F018F86168084AC1F30311515CC84071
:1007F0000649086006480068FFF7F8FE0020C2E7D7
:1008000000200240001002407C22000884000020EA
:100810007C00002012A185B00FC98DE80F0014A044
:10082000144A006804905168134801F00C03042B2B
:1008300010D0082B0ED1C1F38343C9031DF8030068
:100840000AD5516804AAC1F34041515C0A4A504399
:10085000B0FBF1F005B0704708494843FAE70000E3
:1008600002030405060708090A0B0C0D0E0F1010F1
:10087000010200000010024000127A0000093D0051
:100880002DE9F84F040070D02078C04DC00749D042
:100890006868C0F38100012807D06868C0F3810050
:1008A000022809D16868C00306D52868800339D5B5
:1008B00060680028E7D035E06068B0F5803F0BD075
:1008C00010B1B0F5A02F11D0286820F48030286036
:1008D000286820F4802002E0286840F480302860F6
:1008E000606890B1FFF762FE06460AE0286840F4AF
:1008F00080202860F0E700BFFFF758FE801B6428C7
:1009000073D828688003F7D50CE0FFF74FFE064642
:1009100005E000BFFFF74AFE801B6428F0D8286876
:100920008003F7D420789A4E80074FF001094FF0EA
:10093000000839D5686810F00C0F07D06868C0F35C
:100940008100022809D16868C00306D4286880079E
:1009500014D52069012808D110E02069B0B1C6F88B
:100960000090FFF723FE074605E00AE1FFF71EFEB1
:10097000C01B0228C4D828688007F7D52868616999
:1009800020F0F80040EAC10028600DE0C6F80080C1
:10099000FFF70CFE074604E0FFF708FEC01B022825
:1009A00023D828688007F7D4207800072CD5794809
:1009B000A169D9B1C0F80090FFF7F8FD074604E03F
:1009C000FFF7F4FDC01B02280FD8686A8007F7D52F
:1009D00071484FF4FA510068B0FBF1F0009000BF8D
:1009E0000098411E0091FAD20EE080E0C0F800802D
:1009F000FFF7DCFD074604E0FFF7D8FDC01B022827
:100A000075D8686A8007F7D42078400760D5E86910
:100A10000027C00008D4E86940F08050E861E86928
:100A2000012700F0805000905C480168C90513D48C
:100A30000168834641F480710160FFF7B7FD82468B
:100A400006E000BFFFF7B2FDA0EB0A0064284ED815
:100A5000DBF80000C005F5D5E06801280AD008B130
:100A6000052813D0286A20F001002862286A20F0A7
:100A7000040002E0286A40F001002862E06841F2C8
:100A8000883B98B1FFF792FD82460BE0286A40F060
:100A900004002862EEE700BFFFF788FDA0EB0A0123
:100AA00059455AD8286A8007F6D50CE0FFF77EFD35
:100AB000824605E0FFF77AFDA0EB0A0159454CD8C4
:100AC000286A8007F6D41FB1E86920F08050E861F9
:100AD000E06988B36968C1F38101022944D0022822
:100AE000C6F8608004D0FFF761FD044638E034E0CA
:100AF000FFF75CFD074604E0FFF758FDC01B022826
:100B00002BD828688001F7D4206AB0F5803F05D142
:100B10006868A16820F4003008436860D4E90801DF
:100B20000843696821F4741108436860C6F860904E
:100B3000FFF73CFD044606E025E000BFFFF736FD69
:100B4000001B022809D828688001F7D51BE000BFE8
:100B5000FFF72CFD001B022802D90320BDE8F88F07
:100B600028688001F4D40EE00128F7D06868226A72
:100B700000F48031914204D1616A00F4701088421F
:100B800001D00120EAE70020E8E700000010024061
:100B90000000424280044242840000200070004075
:100BA00010B5401EB0F1807F01D3012010BD4FF081
:100BB000E02460610F21601701F08CFA0020A06131
:100BC00007202061002010BD7047704710B590F8D5
:100BD0003C20012A22D0012280F83C20CA688C687F
:100BE00022F4407222434C6822F4806222430C6853
:100BF00022F4006222430C6922F4805222434C69A1
:100C000022F400522243C969002322F480420A439D
:100C100001684A6480F83C30002010BD022010BDFD
:100C200070B590F83C20012A2CD0012480F83C407B
:100C3000022280F83D2003685A689D6822F0700601
:100C40000A6832435A60104B02689A420ED00F4B2A
:100C50009A420BD0B2F1804F08D00D4B9A4205D08A
:100C60000C4B9A4202D00C4B9A4204D1496825F0B1
:100C700080031943916080F83D40002180F83C10CA
:100C8000084670BD022070BD002C014000340140B8
:100C90000004004000080040000C004010B50400B3
:100CA00003D094F83D0010B107E0012010BD0020F2
:100CB00084F83C00204600F01FF8022084F83D0034
:100CC000211D206801F068F8012084F8460084F8AE
:100CD0003E0084F83F0084F8400084F8410084F826
:100CE000420084F8430084F8440084F8450084F806
:100CF0003D00002010BD000000B585B0002100912E
:100D000001910291039100682349884242D123480E
:100D1000816941F400618161816901F4006104919C
:100D2000816941F0400181618069694600F04000BD
:100D300004904FF4D4400090022002901848FFF72E
:100D400033FB1848416821F0C00141F0E06141F0F7
:100D5000C0014160002211461820FFF793FC1820C3
:100D6000FFF782FC002211461920FFF78BFC1920A7
:100D7000FFF77AFC002211461A20FFF783FC1A20A5
:100D8000FFF772FC002211461B20FFF77BFC1B20A3
:100D9000FFF76AFC05B000BD002C014000100240C6
:100DA000001801400000014070B5044690F83C0076
:100DB000012817D0012584F83C50022084F83D001A
:100DC0002068826822F0770222F47F4282600868FD
:100DD000502830D00DDC20284DD005DC98B31028E9
:100DE0003BD148E0022070BD302844D0402834D1A7
:100DF00039E0602828D0702806D0B0F5805F2CD06C
:100E0000B0F5005F29D10AE0CB68D1E90121206863
:100E100001F015F82068816841F0770109E0CB689E
:100E2000D1E90121206801F00AF82068816841F4C5
:100E30008041816011E0CA684968206801F0D4F8F7
:100E40005021206807E016E0CA684968206801F070
:100E500013F96021206800F0FCFF84F83D50002069
:100E600084F83C0070BDCA684968206801F0BCF88D
:100E700040212068EFE7226801461046EBE72DE9A4
:100E8000F0410D46040003D094F83D0018B108E08D
:100E90000120BDE8F081002084F83C00204600F0ED
:100EA00041F8022084F83D002068816844F207027E
:100EB00091438160211D206800F06EFF22689068D8
:100EC0009169166A2B68AF69034340F2033081438E
:100ED00041EA0721A868EF6908434FF6FC418843BF
:100EE000E96840EA0720014328692F6A000140EAC7
:100EF0000730084369686D6926F0220646EA051541
:100F0000294393602268906154F8460B01620120E6
:100F100004F81F09E0752076E0762077A0750020A0
:100F2000B7E7000070B586B00025009501950295E1
:100F30000395006851490124514A524EB0F1804F47
:100F400024D0514DC023A84258D1C86940F00200B6
:100F5000C861C86900F002000490886940F004008C
:100F600088618869694600F0040004900294009347
:100F70001046FFF719FA002211461D20FFF782FBE9
:100F80005FF01D00FFF770FB06B070BDC86940F050
:100F90000100C861C86900F001000490886940F050
:100FA00004008861886900F004000490886940F0BA
:100FB000080088618869694600F0080004904FF4D1
:100FC0000040009002941046FFF7EEF90820CDE9AA
:100FD0000005694602943046FFF7E6F92B48416860
:100FE00021F4407141F0E06141F4807141600022E0
:100FF00011461C20FFF746FB1C20C3E7244DA842E6
:101000001BD1C86940F00400C861C86900F0040041
:101010000490886940F0080088618869694600F09A
:101020000800049000933046FFF7BEF900221146F5
:101030001E20FFF727FB1E20A4E7164B9842A3D1E2
:10104000C86940F00800C861C86900F00800049051
:10105000886940F0040088618869694600F00400EE
:1010600004900320009002941046FFF79DF900229F
:1010700011463220FFF706FB322083E700100240C2
:1010800000080140000C0140000400400000014045
:1010900000080040000C004070B590F83E60044627
:1010A00090F83F5090F8423090F84320022021B150
:1010B00004290ED0012E1BD114E0012E18D1012BD2
:1010C00016D184F83E0084F84200012200212068F5
:1010D00020E0012D0CD1012A0AD184F83F0084F8C8
:1010E000430014E0012D03D1012B01D1012A01D0CD
:1010F000012070BD84F83E0084F83F0084F842006F
:1011000084F8430001220021206800F08BFE0122B8
:101110000421206800F086FE2068016841F001018A
:101120000160002070BD0000104910B588421CD13C
:101130000F490A68100618D40C4854064FF00003F3
:10114000006807D5426BCA608C68121BC1E9003287
:10115000016A09E0074C2360436B42F040028B6058
:101160000A60016A41F00201016210BD880000209E
:1011700068000020342C01402DE9F041054690F82C
:101180003C000C46012836D0012085F83C008AB38B
:10119000042A42D02868082A51D0D4E90023E16803
:1011A000066A26F480560662C669076A26F4407607
:1011B00046EA03234FF6FF7606EA013123F4704333
:1011C00019434FF4005627F4005306EA02321A433B
:1011D000C16102622868C16921F44061C161286867
:1011E000C169A26841EA0221C161002085F83C0082
:1011F000BDE8F08101E00220FAE7D4E90012E368DB
:10120000286800F003FF2868816921F00C018161E2
:1012100028688169A26811430FE0D4E90012E368ED
:10122000286800F03BFF2868816921F440618161F2
:1012300028688169A26841EA02218161D5E7D4E981
:101240000027267B016A21F480710162C169036A6B
:1012500021F00301394321F0F00731074FF4007604
:1012600047EA116123F4007306EA02221A43C161BE
:1012700002622868C16921F00C01C1612868C16956
:10128000A2681143B0E710B5040003D094F83D0004
:1012900010B107E0012010BD002084F83C0020467A
:1012A00000F01EF8022084F83D00211D206800F0A7
:1012B00073FD012084F8460084F83E0084F83F0066
:1012C00084F8400084F8410084F8420084F8430028
:1012D00084F8440084F8450084F83D00002010BDE7
:1012E0007047000010B5044651B104290DD00829FB
:1012F00010D094F8410094F84520012811D10EE057
:1013000094F83E0094F84220F7E794F83F0094F8F0
:101310004320F2E794F8400094F84420EDE7012AD6
:1013200001D0012010BD022051B1042911D008299B
:1013300018D084F8410084F845000C291BD13CE00A
:1013400084F83E0084F842002068C26842F002023D
:1013500010E084F83F0084F843002068C26842F03F
:10136000040207E084F8400084F844002068C26862
:1013700042F00802C2600122206800F053FD1149CA
:10138000206888420ED0104988420BD0B0F1804FBF
:1013900008D00E49884205D00D49884202D00D4937
:1013A000884204D1816801F00701062903D0016851
:1013B00041F001010160002010BD2068C26842F0C8
:1013C0001002D7E7002C0140003401400004004027
:1013D00000080040000C004070B504460068016938
:1013E0004FF00005C943890715D4C168C94389076F
:1013F00011D4E91E016101202077206880698007EF
:10140000204602D0FFF790FE04E000F0BFF820462F
:1014100000F062F9257720680169C943490717D4AC
:10142000C168C943490713D46FF004010161022068
:1014300020772068806910F4407F204602D0FFF7B3
:1014400073FE04E000F0A2F8204600F045F925778D
:1014500020680169C943090716D4C168C94309074F
:1014600012D46FF008010161042020772068C06960
:101470008007204602D0FFF757FE04E000F086F810
:10148000204600F029F9257720680169C943C9067B
:1014900017D4C168C943C90613D46FF010010161A4
:1014A000082020772068C06910F4407F204602D0D1
:1014B000FFF73AFE04E000F069F8204600F00CF96E
:1014C000257720680169C943C90708D1C168C943A4
:1014D000C90704D1891E0161204600F059F920682E
:1014E0000169C943090609D4C168C943090605D47D
:1014F0006FF0800101612046FFF766FB20680169FB
:10150000C943490609D4C168C943490605D46FF0E7
:1015100040010161204600F03CF920680169C9439F
:1015200089060BD4C168C943890607D46FF020012E
:1015300001612046BDE87040FFF747BB70BD000069
:1015400000B585B0002100910191029103910068DE
:101550000B49884212D10B48816941F01001816129
:101560008069694600F0100004904FF4707000909C
:101570000220019003900448FEF716FF05B000BD5D
:10158000003401400010024000100140704770B567
:10159000044690F83C000D4601280AD0012084F84A
:1015A0003C0042B1042A18D0082A2AD00C2A4DD176
:1015B00039E0022070BD206800F054FC2068816989
:1015C00041F0080181612068816921F00401816195
:1015D000206881692A69114311E0206800F072FCDB
:1015E0002068816941F4006181612068816921F48A
:1015F00080618161206881692A6941EA02218161F3
:1016000024E0206800F094FC2068C16941F00801E2
:10161000C1612068C16921F00401C1612068C1690C
:101620002A69114311E0206800F0B6FC2068C16906
:1016300041F40061C1612068C16921F48061C16128
:101640002068C1692A6941EA0221C161002084F849
:101650003C0070BD10B5040003D094F83D0010B1FB
:1016600007E0012010BD002084F83C00204600F077
:101670001FF8022084F83D00211D206800F08CFB3B
:10168000012084F8460084F83E0084F83F0084F886
:10169000400084F8410084F8420084F8430084F854
:1016A000440084F8450084F83D00002010BD00008F
:1016B00008B500680649884208D10648816941F4A6
:1016C00000518161806900F40050009008BD000065
:1016D00000340140001002407047000010B504467D
:1016E000022249B104290ED0082913D094F84100F0
:1016F000012816D0012010BD94F83E000128F9D130
:1017000084F83E200FE094F83F000128F2D184F8DD
:101710003F2008E094F840000128EBD184F84020F5
:1017200001E084F841200122206800F07BFB13498E
:101730002068134A884201D0904203D1436C43F49D
:1017400000434364206888420DD090420BD0B0F132
:10175000804F08D00B49884205D00B49884202D0FF
:101760000A49884204D1816801F00701062903D0A3
:10177000016841F001010160002010BD002C014012
:10178000003401400004004000080040000C00400C
:1017900070477047FEE700002DE9F0410C1A114F29
:1017A0004FF07E552046FEF77DFD2946FEF748FDA9
:1017B0000D4D0646686D201AFEF774FD3946FEF79A
:1017C0003FFD3146FEF7E4FC0646286DFEF76AFD54
:1017D0003146FEF7DDFCFEF76EFDC5E91404BDE8F9
:1017E000F081000000004843000000202DE9F04F88
:1017F00085B00026384800960196029603968169C6
:1018000041F004018161816901F004010491816961
:1018100041F010018161816901F010010491816939
:1018200041F040018161816901F0400104918169C9
:1018300041F0080181618069DFF8A09000F00800A4
:10184000049000223C214846FEF7AAFEDFF890A053
:10185000002220215046FEF7A3FEDFF888B04FF4A7
:101860008057002239465846FEF79AFE4FF4084842
:10187000002241461C48FEF793FE0C2000900125F3
:101880000224CDE90154694648460394FEF78CFDD5
:10189000302003948DE8610069464846FEF784FDD8
:1018A000202003948DE8610069465046FEF77CFDD8
:1018B000CDE90264CDE9007569465846FEF774FD2E
:1018C000CDF80080CDE90154694607480394FEF73E
:1018D0006BFD05B0BDE8F08F00100240000801402C
:1018E0000010014000180140000C014010B58AB002
:1018F00000243148049405940694079408940994AC
:101900000094019402942B49039401604721C0E99B
:1019100001144FF6FF71C0E903148021C0E90541AD
:10192000FFF7BCF908B1FEF72BFD4FF4805004908F
:1019300004A92148FFF738FA08B1FEF721FD1E4837
:10194000FFF7A1FC08B1FEF71BFD2020CDE908043C
:1019500008A91948FFF764F908B1FEF711FD022044
:1019600000900120CDE9010408200390002269467F
:101970001148FFF701FC08B1FEF702FD0422694699
:101980000D48FFF7F9FB08B1FEF7FAFC082269469B
:101990000948FFF7F1FB08B1FEF7F2FC0C2269469B
:1019A0000548FFF7E9FB002801D0FEF7E9FC0AB083
:1019B00010BD0000002C01408800002010B58CB044
:1019C00024216846FEF7D9FB0024154809944FF0FE
:1019D00080410A94C0E900144FF6FF71C0E902414A
:1019E000046184610320CDE900040120CDE90204F3
:1019F0000494CDE905400794694609480894FFF727
:101A00003EFA08B1FEF7BCFC099409A904480A94FF
:101A1000FFF706F9002801D0FEF7B2FC0CB010BDAC
:101A2000D000002010B58CB024216846FEF7A5FB3D
:101A300000241648099414490A94C0E900144FF68A
:101A4000FF71C0E90241046184610320CDE9000413
:101A50000120CDE902040494CDE9054007946946CC
:101A60000A480894FFF70BFA08B1FEF789FC0994BD
:101A700009A906480A94FFF7D3F8002801D0FEF719
:101A80007FFC0CB010BD00000004004018010020D5
:101A900010B58CB024216846FEF76FFB0024164871
:101AA000099414490A94C0E900144FF6FF71C0E983
:101AB0000241046184610320CDE900040120CDE9E5
:101AC00002040494CDE90540079469460A48089445
:101AD000FFF7D5F908B1FEF753FC099409A90648A8
:101AE0000A94FFF79DF8002801D0FEF749FC0CB0DE
:101AF00010BD0000000800406001002010B58CB04F
:101B000024216846FEF739FB00241648099414493D
:101B10000A94C0E900144FF6FF71C0E90241046164
:101B200084610320CDE900040120CDE9020404947E
:101B3000CDE90540079469460A480894FFF79FF9E4
:101B400008B1FEF71DFC099409A906480A94FFF79D
:101B500067F8002801D0FEF713FC0CB010BD0000A0
:101B6000000C0040A801002010B592B000240F9492
:101B70001C2168461094FEF700FB202107A8FEF701
:101B8000FCFA2C482A49C0E9001441F61F41C0E97B
:101B90000241046144618461FFF75CFD08B1FEF716
:101BA000EFFB0F940FA923481094FFF739F808B101
:101BB000FEF7E6FB6020CDE9000402940394049450
:101BC0000594002269461B480694FFF7E0FC08B123
:101BD000FEF7D6FB042269461648FFF7D8FC08B189
:101BE000FEF7CEFB082269461248FFF7D0FC08B189
:101BF000FEF7C6FB0C2269460E48FFF7C8FC08B189
:101C0000FEF7BEFB0794089409944FF400500A9421
:101C1000CDE90B4007A907480E94FEF7D7FF08B19E
:101C2000FEF7AEFB0348FFF78BFC12B010BD0000BF
:101C300000340140F0010020FEE7704770470000CB
:101C400000221F49012807D0022812D003281ED0E5
:101C5000042828D0002070471A4800680368C3F39E
:101C600000138B60406AC86008804FF080414A6270
:101C70000AE0154800680368C3F300134B61406A2B
:101C80008861488011490A60404200B2704710489C
:101C900000680368C3F300130B62406A486200B235
:101CA00088800C490AE00C4800680368C3F30013FD
:101CB000CB62406A086300B2C88008490A60704776
:101CC00000000020D0000020180100202404004063
:101CD0006001002024080040A8010020240C0040DE
:101CE0007047FEF769BC30B58FB028216846FEF713
:101CF00044FA14210AA8FEF740FA01210804CDE9AC
:101D000000100024029402250491CDE907504FF4FD
:101D1000E01009906846FEF7B3FD0F20CDE90A05F3
:101D20006802CDE90C4002210AA80E94FEF7DCFC03
:101D30000FB030BD704700000148FFF74DBB0000F9
:101D4000880000200148FFF747BB00008800002002
:101D50000148FFF741BB0000880000200148FFF761
:101D60003BBB0000880000200148FFF735BB0000A6
:101D7000D00000200148FFF72FBB00001801002011
:101D80000148FFF729BB0000600100200148FFF770
:101D900023BB0000A8010020F0B502681C4B1D4DBC
:101DA0001D4E1E4F1E4C4FF0804C984209D0A04251
:101DB00007D0604505D0A84203D0B04201D0B84258
:101DC00004D122F0700E4A6842EA0E02984209D00D
:101DD000A04207D0604505D0A84203D0B04201D050
:101DE000B84203D122F44075CA682A434D6922F0F3
:101DF00080022A4302608A68C2620A68826298424C
:101E000001D0A04201D10969016301214161F0BD06
:101E1000002C01400004004000080040000C00407D
:101E20000034014010B501F01F030121046A9940FC
:101E30008C430462016A9A401143016210BD10B5DF
:101E4000846842EA032224F47F440A4322438260E6
:101E500010BD826822F070020A4342F007018160DF
:101E600070470000F0B5026A22F001020262036AC4
:101E700042688469124E24F073050C682C4323F0E9
:101E800002058B682B430D4DA84201D0B04205D10D
:101E900023F00807CB683B4323F00403A84201D09A
:101EA000B04205D14D6922F4407215438A692A4334
:101EB00042608461496841630362F0BD002C0140C7
:101EC00000340140F0B5026A22F010020262026A98
:101ED000436884690D6824F4E64444EA05248D6867
:101EE00022F0200242EA05120F4D104EA84201D006
:101EF000B04206D1CF6822F0800242EA071222F0F7
:101F00004002A84201D0B04207D14D6923F440639A
:101F100043EA85038D6943EA850343608461496828
:101F200081630262F0BD0000002C014000340140DA
:101F3000F0B5026A22F480720262026A4368C469E0
:101F400022F4007224F073050C68124E2C438D6845
:101F500042EA05220E4DA84201D0B04206D1CF6818
:101F600022F4006242EA072222F48062A84201D0F1
:101F7000B04207D14D6923F4405343EA05138D69FC
:101F800043EA05134360C4614968C1630262F0BD5E
:101F9000002C01400034014030B5026A22F4805226
:101FA0000262046A4268C3690D6823F4E64343EAA7
:101FB00005238D6824F4005444EA0534084DA842F2
:101FC00002D0084DA84204D14D6922F4804242EA71
:101FD00085124260C36149680164046230BD00003B
:101FE000002C01400034014010B5036A046A24F05B
:101FF00001040462846924F0F00444EA021423F02A
:102000000A020A438461026210BD000070B5046ACE
:1020100024F0010404628469056A124EB0420ED0B5
:10202000114EB0420BD0B0F1804F08D00F4EB042ED
:1020300005D00F4EB04202D00E4EB04203D124F074
:102040000304144301E044F001041A0724F0F004EF
:1020500044EA126225F00A0301F00A011943826181
:10206000016270BD002C01400034014000040040BA
:1020700000080040000C004010B5036A23F0100374
:1020800003628369046A23F4704343EA023224F052
:10209000A00343EA01118261016210BD30B5046AF8
:1020A00024F0100404628469056A24F4407444EA4C
:1020B000022222F470444FF6FF7202EA03322243F6
:1020C000A02425F0A00304EA0111194382610162F2
:1020D00030BDFEE70907090E002804DB00F1E0200F
:1020E00080F80014704700F00F0000F1E02080F845
:1020F000141D704702E008C8121F08C1002AFAD157
:1021000070477047002001E001C1121F002AFBD177
:1021100070470000FEF758FAFFF7E5FDFFF766FB92
:10212000FFF7ECFCFFF74AFCFFF77CFCFFF7B0FC85
:10213000FFF71AFDFFF7DAFB00214548FFF7D2F859
:1021400004214348FFF7CEF808214148FFF7CAF8B9
:102150000C213F48FFF7C6F83D480068C16841F0D0
:102160000101C16000213B48FEF796FF0421394878
:10217000FEF792FF00213848FEF78EFF0421364813
:10218000FEF78AFF00213548FEF786FF0421334819
:10219000FEF782FF00213248FEF77EFF042130481F
:1021A000FEF77AFF00212F48FFF798FA04212D4807
:1021B000FFF794FA08212B48FFF790FA0C212948E1
:1021C000FFF78CFA284C4FF4FA6675420120FFF7AE
:1021D00037FD20610220FFF733FDE0610320FFF7A8
:1021E0002FFDA0620420FFF72BFD6063A16C206926
:1021F000FFF7D2FAA063A16CE069FFF7CDFAE063C4
:10220000A16CA06AFFF7C8FA2064A16C606BFFF7AD
:10221000C3FA6064334632462946A06B00F026F8C4
:10222000A0631A462946E06B00F020F8E0631A46E6
:102230002946206C00F01AF820641A462946606C82
:1022400000F014F860640A20FEF79CF8BEE7000076
:1022500088000020D000002018010020600100202C
:10226000A8010020F001002000000020884201DACF
:10227000084670479042FCDD1046704700000000A1
:10228000000000000102030406070809AC22000850
:102290000000002088000000F4200008342300081B
:1022A00088000020B00500000421000800000000A4
:1022B000000000000000000000000000000000001E
:1022C000000000000000000000000000000000000E
:1022D00000000000000000000000000000000000FE
:1022E00000000000000000000000000000000000EE
:1022F00000000000140000000000000000000000CA
:1023000000000000000000000000000000000000CD
:1023100000000000000000000000000000000000BD
:10232000000000000100000010000000000000009C
:042330000024F40091
:0400000508000131BD
:00000001FF
